{
  "contractName": "ElectionContract",
  "abi": [
    {
      "inputs": [
        {
          "internalType": "address[]",
          "name": "_candidates",
          "type": "address[]"
        },
        {
          "internalType": "address[]",
          "name": "_voters",
          "type": "address[]"
        },
        {
          "internalType": "uint32",
          "name": "_startDate",
          "type": "uint32"
        },
        {
          "internalType": "uint32",
          "name": "_endDate",
          "type": "uint32"
        }
      ],
      "stateMutability": "nonpayable",
      "type": "constructor"
    },
    {
      "inputs": [
        {
          "internalType": "address",
          "name": "",
          "type": "address"
        }
      ],
      "name": "candidates",
      "outputs": [
        {
          "internalType": "uint256",
          "name": "voteCount",
          "type": "uint256"
        }
      ],
      "stateMutability": "view",
      "type": "function"
    },
    {
      "inputs": [],
      "name": "candidatesCount",
      "outputs": [
        {
          "internalType": "uint256",
          "name": "",
          "type": "uint256"
        }
      ],
      "stateMutability": "view",
      "type": "function"
    },
    {
      "inputs": [
        {
          "internalType": "uint256",
          "name": "",
          "type": "uint256"
        }
      ],
      "name": "candidatesList",
      "outputs": [
        {
          "internalType": "address",
          "name": "",
          "type": "address"
        }
      ],
      "stateMutability": "view",
      "type": "function"
    },
    {
      "inputs": [],
      "name": "endDate",
      "outputs": [
        {
          "internalType": "uint256",
          "name": "",
          "type": "uint256"
        }
      ],
      "stateMutability": "view",
      "type": "function"
    },
    {
      "inputs": [],
      "name": "responsibleAddress",
      "outputs": [
        {
          "internalType": "address",
          "name": "",
          "type": "address"
        }
      ],
      "stateMutability": "view",
      "type": "function"
    },
    {
      "inputs": [],
      "name": "startDate",
      "outputs": [
        {
          "internalType": "uint256",
          "name": "",
          "type": "uint256"
        }
      ],
      "stateMutability": "view",
      "type": "function"
    },
    {
      "inputs": [
        {
          "internalType": "address[]",
          "name": "_voters",
          "type": "address[]"
        }
      ],
      "name": "addVoters",
      "outputs": [],
      "stateMutability": "nonpayable",
      "type": "function"
    },
    {
      "inputs": [
        {
          "internalType": "address",
          "name": "candidateAddress",
          "type": "address"
        }
      ],
      "name": "vote",
      "outputs": [],
      "stateMutability": "nonpayable",
      "type": "function"
    },
    {
      "inputs": [
        {
          "internalType": "address",
          "name": "newVoter",
          "type": "address"
        }
      ],
      "name": "delegateVote",
      "outputs": [],
      "stateMutability": "nonpayable",
      "type": "function"
    },
    {
      "inputs": [],
      "name": "getSpecificVoter",
      "outputs": [
        {
          "components": [
            {
              "internalType": "uint256",
              "name": "voteWeight",
              "type": "uint256"
            },
            {
              "internalType": "bool",
              "name": "hasVoted",
              "type": "bool"
            },
            {
              "internalType": "address",
              "name": "votedFor",
              "type": "address"
            },
            {
              "internalType": "bool",
              "name": "hasDelegated",
              "type": "bool"
            },
            {
              "internalType": "address",
              "name": "delegatedTo",
              "type": "address"
            }
          ],
          "internalType": "struct ElectionContract.Voter",
          "name": "",
          "type": "tuple"
        }
      ],
      "stateMutability": "view",
      "type": "function"
    },
    {
      "inputs": [],
      "name": "getWinner",
      "outputs": [
        {
          "internalType": "address",
          "name": "winnerAddress",
          "type": "address"
        }
      ],
      "stateMutability": "view",
      "type": "function"
    }
  ],
  "bytecode": "0x60806040523480156200001157600080fd5b50604051620022c6380380620022c68339818101604052810190620000379190620005b0565b336000806101000a81548173ffffffffffffffffffffffffffffffffffffffff021916908373ffffffffffffffffffffffffffffffffffffffff16021790555083600490805190602001906200008f929190620002d3565b50600060058190555060005b84518110156200014057600060036000878481518110620000c157620000c062000660565b5b602002602001015173ffffffffffffffffffffffffffffffffffffffff1673ffffffffffffffffffffffffffffffffffffffff168152602001908152602001600020905060008160000181905550600560008154809291906200012490620006c8565b91905055505080806200013790620006c8565b9150506200009b565b5062000152836200017660201b60201c565b8163ffffffff166001819055508063ffffffff1660028190555050505050620007bf565b60008054906101000a900473ffffffffffffffffffffffffffffffffffffffff1673ffffffffffffffffffffffffffffffffffffffff163373ffffffffffffffffffffffffffffffffffffffff161462000207576040517f08c379a0000000000000000000000000000000000000000000000000000000008152600401620001fe906200079d565b60405180910390fd5b60005b8151811015620002cf5760006006600084848151811062000230576200022f62000660565b5b602002602001015173ffffffffffffffffffffffffffffffffffffffff1673ffffffffffffffffffffffffffffffffffffffff16815260200190815260200160002090506001816000018190555060008160010160006101000a81548160ff02191690831515021790555060008160010160156101000a81548160ff021916908315150217905550508080620002c690620006c8565b9150506200020a565b5050565b8280548282559060005260206000209081019282156200034f579160200282015b828111156200034e5782518260006101000a81548173ffffffffffffffffffffffffffffffffffffffff021916908373ffffffffffffffffffffffffffffffffffffffff16021790555091602001919060010190620002f4565b5b5090506200035e919062000362565b5090565b5b808211156200037d57600081600090555060010162000363565b5090565b6000604051905090565b600080fd5b600080fd5b600080fd5b6000601f19601f8301169050919050565b7f4e487b7100000000000000000000000000000000000000000000000000000000600052604160045260246000fd5b620003e5826200039a565b810181811067ffffffffffffffff82111715620004075762000406620003ab565b5b80604052505050565b60006200041c62000381565b90506200042a8282620003da565b919050565b600067ffffffffffffffff8211156200044d576200044c620003ab565b5b602082029050602081019050919050565b600080fd5b600073ffffffffffffffffffffffffffffffffffffffff82169050919050565b6000620004908262000463565b9050919050565b620004a28162000483565b8114620004ae57600080fd5b50565b600081519050620004c28162000497565b92915050565b6000620004df620004d9846200042f565b62000410565b905080838252602082019050602084028301858111156200050557620005046200045e565b5b835b818110156200053257806200051d8882620004b1565b84526020840193505060208101905062000507565b5050509392505050565b600082601f83011262000554576200055362000395565b5b815162000566848260208601620004c8565b91505092915050565b600063ffffffff82169050919050565b6200058a816200056f565b81146200059657600080fd5b50565b600081519050620005aa816200057f565b92915050565b60008060008060808587031215620005cd57620005cc6200038b565b5b600085015167ffffffffffffffff811115620005ee57620005ed62000390565b5b620005fc878288016200053c565b945050602085015167ffffffffffffffff81111562000620576200061f62000390565b5b6200062e878288016200053c565b9350506040620006418782880162000599565b9250506060620006548782880162000599565b91505092959194509250565b7f4e487b7100000000000000000000000000000000000000000000000000000000600052603260045260246000fd5b7f4e487b7100000000000000000000000000000000000000000000000000000000600052601160045260246000fd5b6000819050919050565b6000620006d582620006be565b91507fffffffffffffffffffffffffffffffffffffffffffffffffffffffffffffffff8214156200070b576200070a6200068f565b5b600182019050919050565b600082825260208201905092915050565b7f596f7520646f6e2774206861766520746865207265717569726564207065726d60008201527f697373696f6e20746f20706572666f726d207468697320616374696f6e2e0000602082015250565b600062000785603e8362000716565b9150620007928262000727565b604082019050919050565b60006020820190508181036000830152620007b88162000776565b9050919050565b611af780620007cf6000396000f3fe608060405234801561001057600080fd5b50600436106100a95760003560e01c80638ab66a90116100715780638ab66a90146101405780638e7ea5b214610170578063b31e1d4d1461018e578063c24a0f8b146101aa578063df2d5ec7146101c8578063fcd3a653146101f8576100a9565b80630b97bc86146100ae578063181bc0b7146100cc5780632d35a8a2146100ea5780636dd7d8ea146101085780638203373a14610124575b600080fd5b6100b6610216565b6040516100c39190611024565b60405180910390f35b6100d461021c565b6040516100e19190611080565b60405180910390f35b6100f2610240565b6040516100ff9190611024565b60405180910390f35b610122600480360381019061011d91906110db565b610246565b005b61013e60048036038101906101399190611261565b6105df565b005b61015a600480360381019061015591906110db565b610732565b6040516101679190611024565b60405180910390f35b610178610750565b6040516101859190611080565b60405180910390f35b6101a860048036038101906101a391906110db565b610909565b005b6101b2610e24565b6040516101bf9190611024565b60405180910390f35b6101e260048036038101906101dd91906112d6565b610e2a565b6040516101ef9190611080565b60405180910390f35b610200610e69565b60405161020d91906113a4565b60405180910390f35b60015481565b60008054906101000a900473ffffffffffffffffffffffffffffffffffffffff1681565b60055481565b426001541061028a576040517f08c379a00000000000000000000000000000000000000000000000000000000081526004016102819061141c565b60405180910390fd5b60025442106102ce576040517f08c379a00000000000000000000000000000000000000000000000000000000081526004016102c590611488565b60405180910390fd5b6000600660003373ffffffffffffffffffffffffffffffffffffffff1673ffffffffffffffffffffffffffffffffffffffff1681526020019081526020016000206040518060a0016040529081600082015481526020016001820160009054906101000a900460ff161515151581526020016001820160019054906101000a900473ffffffffffffffffffffffffffffffffffffffff1673ffffffffffffffffffffffffffffffffffffffff1673ffffffffffffffffffffffffffffffffffffffff1681526020016001820160159054906101000a900460ff161515151581526020016002820160009054906101000a900473ffffffffffffffffffffffffffffffffffffffff1673ffffffffffffffffffffffffffffffffffffffff1673ffffffffffffffffffffffffffffffffffffffff16815250509050600081600001511415610450576040517f08c379a0000000000000000000000000000000000000000000000000000000008152600401610447906114f4565b60405180910390fd5b806020015115610495576040517f08c379a000000000000000000000000000000000000000000000000000000000815260040161048c90611560565b60405180910390fd5b8060600151156104da576040517f08c379a00000000000000000000000000000000000000000000000000000000081526004016104d1906115cc565b60405180910390fd5b6000600660003373ffffffffffffffffffffffffffffffffffffffff1673ffffffffffffffffffffffffffffffffffffffff168152602001908152602001600020905060018160010160006101000a81548160ff021916908315150217905550828160010160016101000a81548173ffffffffffffffffffffffffffffffffffffffff021916908373ffffffffffffffffffffffffffffffffffffffff1602179055508060000154600360008573ffffffffffffffffffffffffffffffffffffffff1673ffffffffffffffffffffffffffffffffffffffff16815260200190815260200160002060000160008282546105d3919061161b565b92505081905550505050565b60008054906101000a900473ffffffffffffffffffffffffffffffffffffffff1673ffffffffffffffffffffffffffffffffffffffff163373ffffffffffffffffffffffffffffffffffffffff161461066d576040517f08c379a0000000000000000000000000000000000000000000000000000000008152600401610664906116e3565b60405180910390fd5b60005b815181101561072e5760006006600084848151811061069257610691611703565b5b602002602001015173ffffffffffffffffffffffffffffffffffffffff1673ffffffffffffffffffffffffffffffffffffffff16815260200190815260200160002090506001816000018190555060008160010160006101000a81548160ff02191690831515021790555060008160010160156101000a81548160ff02191690831515021790555050808061072690611732565b915050610670565b5050565b60036020528060005260406000206000915090508060000154905081565b60004260025410610796576040517f08c379a000000000000000000000000000000000000000000000000000000000815260040161078d906117ed565b60405180910390fd5b6000805b600554811015610904578160036000600484815481106107bd576107bc611703565b5b9060005260206000200160009054906101000a900473ffffffffffffffffffffffffffffffffffffffff1673ffffffffffffffffffffffffffffffffffffffff1673ffffffffffffffffffffffffffffffffffffffff1681526020019081526020016000206000015411156108f157600481815481106108405761083f611703565b5b9060005260206000200160009054906101000a900473ffffffffffffffffffffffffffffffffffffffff169250600360006004838154811061088557610884611703565b5b9060005260206000200160009054906101000a900473ffffffffffffffffffffffffffffffffffffffff1673ffffffffffffffffffffffffffffffffffffffff1673ffffffffffffffffffffffffffffffffffffffff1681526020019081526020016000206000015491505b80806108fc90611732565b91505061079a565b505090565b6000600660003373ffffffffffffffffffffffffffffffffffffffff1673ffffffffffffffffffffffffffffffffffffffff1681526020019081526020016000206040518060a0016040529081600082015481526020016001820160009054906101000a900460ff161515151581526020016001820160019054906101000a900473ffffffffffffffffffffffffffffffffffffffff1673ffffffffffffffffffffffffffffffffffffffff1673ffffffffffffffffffffffffffffffffffffffff1681526020016001820160159054906101000a900460ff161515151581526020016002820160009054906101000a900473ffffffffffffffffffffffffffffffffffffffff1673ffffffffffffffffffffffffffffffffffffffff1673ffffffffffffffffffffffffffffffffffffffff16815250509050600081600001511415610a8b576040517f08c379a0000000000000000000000000000000000000000000000000000000008152600401610a829061187f565b60405180910390fd5b806020015115610ad0576040517f08c379a0000000000000000000000000000000000000000000000000000000008152600401610ac7906118eb565b60405180910390fd5b806060015115610b15576040517f08c379a0000000000000000000000000000000000000000000000000000000008152600401610b0c9061197d565b60405180910390fd5b3373ffffffffffffffffffffffffffffffffffffffff168273ffffffffffffffffffffffffffffffffffffffff161415610b84576040517f08c379a0000000000000000000000000000000000000000000000000000000008152600401610b7b90611a0f565b60405180910390fd5b6000600660008473ffffffffffffffffffffffffffffffffffffffff1673ffffffffffffffffffffffffffffffffffffffff168152602001908152602001600020600001541415610c0a576040517f08c379a0000000000000000000000000000000000000000000000000000000008152600401610c0190611aa1565b60405180910390fd5b6000600660003373ffffffffffffffffffffffffffffffffffffffff1673ffffffffffffffffffffffffffffffffffffffff168152602001908152602001600020905060018160010160156101000a81548160ff021916908315150217905550828160020160006101000a81548173ffffffffffffffffffffffffffffffffffffffff021916908373ffffffffffffffffffffffffffffffffffffffff1602179055508060000154600660008573ffffffffffffffffffffffffffffffffffffffff1673ffffffffffffffffffffffffffffffffffffffff1681526020019081526020016000206000016000828254610d03919061161b565b92505081905550600660008473ffffffffffffffffffffffffffffffffffffffff1673ffffffffffffffffffffffffffffffffffffffff16815260200190815260200160002060010160009054906101000a900460ff1615610e1f57806000015460036000600660008773ffffffffffffffffffffffffffffffffffffffff1673ffffffffffffffffffffffffffffffffffffffff16815260200190815260200160002060010160019054906101000a900473ffffffffffffffffffffffffffffffffffffffff1673ffffffffffffffffffffffffffffffffffffffff1673ffffffffffffffffffffffffffffffffffffffff1681526020019081526020016000206000016000828254610e17919061161b565b925050819055505b505050565b60025481565b60048181548110610e3a57600080fd5b906000526020600020016000915054906101000a900473ffffffffffffffffffffffffffffffffffffffff1681565b610e71610fac565b600660003373ffffffffffffffffffffffffffffffffffffffff1673ffffffffffffffffffffffffffffffffffffffff1681526020019081526020016000206040518060a0016040529081600082015481526020016001820160009054906101000a900460ff161515151581526020016001820160019054906101000a900473ffffffffffffffffffffffffffffffffffffffff1673ffffffffffffffffffffffffffffffffffffffff1673ffffffffffffffffffffffffffffffffffffffff1681526020016001820160159054906101000a900460ff161515151581526020016002820160009054906101000a900473ffffffffffffffffffffffffffffffffffffffff1673ffffffffffffffffffffffffffffffffffffffff1673ffffffffffffffffffffffffffffffffffffffff1681525050905090565b6040518060a0016040528060008152602001600015158152602001600073ffffffffffffffffffffffffffffffffffffffff168152602001600015158152602001600073ffffffffffffffffffffffffffffffffffffffff1681525090565b6000819050919050565b61101e8161100b565b82525050565b60006020820190506110396000830184611015565b92915050565b600073ffffffffffffffffffffffffffffffffffffffff82169050919050565b600061106a8261103f565b9050919050565b61107a8161105f565b82525050565b60006020820190506110956000830184611071565b92915050565b6000604051905090565b600080fd5b600080fd5b6110b88161105f565b81146110c357600080fd5b50565b6000813590506110d5816110af565b92915050565b6000602082840312156110f1576110f06110a5565b5b60006110ff848285016110c6565b91505092915050565b600080fd5b6000601f19601f8301169050919050565b7f4e487b7100000000000000000000000000000000000000000000000000000000600052604160045260246000fd5b6111568261110d565b810181811067ffffffffffffffff821117156111755761117461111e565b5b80604052505050565b600061118861109b565b9050611194828261114d565b919050565b600067ffffffffffffffff8211156111b4576111b361111e565b5b602082029050602081019050919050565b600080fd5b60006111dd6111d884611199565b61117e565b90508083825260208201905060208402830185811115611200576111ff6111c5565b5b835b81811015611229578061121588826110c6565b845260208401935050602081019050611202565b5050509392505050565b600082601f83011261124857611247611108565b5b81356112588482602086016111ca565b91505092915050565b600060208284031215611277576112766110a5565b5b600082013567ffffffffffffffff811115611295576112946110aa565b5b6112a184828501611233565b91505092915050565b6112b38161100b565b81146112be57600080fd5b50565b6000813590506112d0816112aa565b92915050565b6000602082840312156112ec576112eb6110a5565b5b60006112fa848285016112c1565b91505092915050565b61130c8161100b565b82525050565b60008115159050919050565b61132781611312565b82525050565b6113368161105f565b82525050565b60a0820160008201516113526000850182611303565b506020820151611365602085018261131e565b506040820151611378604085018261132d565b50606082015161138b606085018261131e565b50608082015161139e608085018261132d565b50505050565b600060a0820190506113b9600083018461133c565b92915050565b600082825260208201905092915050565b7f54686520656c656374696f6e206861736e27742073746172746564207965742e600082015250565b60006114066020836113bf565b9150611411826113d0565b602082019050919050565b60006020820190508181036000830152611435816113f9565b9050919050565b7f54686520656c656374696f6e2069732066696e69736865642e00000000000000600082015250565b60006114726019836113bf565b915061147d8261143c565b602082019050919050565b600060208201905081810360008301526114a181611465565b9050919050565b7f596f7520617265206e6f7420616c6c6f77656420746f20766f74652e00000000600082015250565b60006114de601c836113bf565b91506114e9826114a8565b602082019050919050565b6000602082019050818103600083015261150d816114d1565b9050919050565b7f596f7520616c726561647920766f7465642e0000000000000000000000000000600082015250565b600061154a6012836113bf565b915061155582611514565b602082019050919050565b600060208201905081810360008301526115798161153d565b9050919050565b7f596f752064656c65676174656420796f757220766f74652e0000000000000000600082015250565b60006115b66018836113bf565b91506115c182611580565b602082019050919050565b600060208201905081810360008301526115e5816115a9565b9050919050565b7f4e487b7100000000000000000000000000000000000000000000000000000000600052601160045260246000fd5b60006116268261100b565b91506116318361100b565b9250827fffffffffffffffffffffffffffffffffffffffffffffffffffffffffffffffff03821115611666576116656115ec565b5b828201905092915050565b7f596f7520646f6e2774206861766520746865207265717569726564207065726d60008201527f697373696f6e20746f20706572666f726d207468697320616374696f6e2e0000602082015250565b60006116cd603e836113bf565b91506116d882611671565b604082019050919050565b600060208201905081810360008301526116fc816116c0565b9050919050565b7f4e487b7100000000000000000000000000000000000000000000000000000000600052603260045260246000fd5b600061173d8261100b565b91507fffffffffffffffffffffffffffffffffffffffffffffffffffffffffffffffff8214156117705761176f6115ec565b5b600182019050919050565b7f596f752063616e27742061736b20666f722074686520656c656374696f6e207760008201527f696e6e6572206265666f72652069747320656e642e0000000000000000000000602082015250565b60006117d76035836113bf565b91506117e28261177b565b604082019050919050565b60006020820190508181036000830152611806816117ca565b9050919050565b7f596f75206d75737420626520616c6c6f77656420746f20766f7465206265666f60008201527f72652064656c65676174696e672069742e000000000000000000000000000000602082015250565b60006118696031836113bf565b91506118748261180d565b604082019050919050565b600060208201905081810360008301526118988161185c565b9050919050565b7f596f7520616c726561647920766f74656420627920796f757273656c662e0000600082015250565b60006118d5601e836113bf565b91506118e08261189f565b602082019050919050565b60006020820190508181036000830152611904816118c8565b9050919050565b7f596f7520616c72656164792064656c65676174656420796f757220766f74652060008201527f746f20736f6d656f6e6520656c73652e00000000000000000000000000000000602082015250565b60006119676030836113bf565b91506119728261190b565b604082019050919050565b600060208201905081810360008301526119968161195a565b9050919050565b7f596f752063616e27742064656c656761746520796f757220766f746520746f2060008201527f796f757273656c662e0000000000000000000000000000000000000000000000602082015250565b60006119f96029836113bf565b9150611a048261199d565b604082019050919050565b60006020820190508181036000830152611a28816119ec565b9050919050565b7f596f752063616e206f6e6c792064656c656761746520796f757220766f74652060008201527f746f20736f6d656f6e6520616c6c6f77656420746f20766f746520746f6f2e00602082015250565b6000611a8b603f836113bf565b9150611a9682611a2f565b604082019050919050565b60006020820190508181036000830152611aba81611a7e565b905091905056fea2646970667358221220b85c61d32988bb32fb0573a5deaa4e3ef544e1695fa8d14c87922f107e3c065e64736f6c634300080b0033",
  "immutableReferences": {},
  "source": "// SPDX-License-Identifier: GPL-3.0\npragma solidity >=0.7.0 <0.9.0;\n\n/**\n * @title Contract\n * @dev Handle election app\n */\ncontract ElectionContract {\n/***************************************************************\n                    VARIABLE DECLARATIONS\n***************************************************************/\n\n    /* Miscellaneous */\n    address public responsibleAddress; // Address of the contract deployer, used to grant election editing permissions\n    // Dates are stored in Unix epoch timestamp format (so only 32 bytes necessary)\n    uint256 public startDate;\n    uint256 public endDate;\n\n    /* Candidates related */\n    struct Candidate {\n        uint voteCount;\n    }\n    mapping(address => Candidate) public candidates;   // Whole object to make a graph on front-side\n    address[] public candidatesList;                   // To access the candidates' list easier within the candidate section\n    uint public candidatesCount;                      // To emulate the mapping length\n\n    /* Voters related */\n    struct Voter {\n        uint voteWeight;        // Vote weight, can increase when people delegate their vote to others\n        bool hasVoted;          // If the voter has voted\n        address votedFor;       // Address of the candidate voted for\n\n        bool hasDelegated;      // If the voter delegated his vote to another member\n        address delegatedTo;    // Address of the member the voter delegated his vote to\n    }\n    mapping(address => Voter) private voters;\n\n/***************************************************************\n                    CONTRACT INITIALIZATION\n***************************************************************/\n\n    /** \n     * @dev Initialize the candidates' pool\n     * @param _candidates : addresses of candidates\n     * @param _voters : addresses of voters\n     * @param _startDate : election's starting date\n     * @param _endDate : election's ending date\n     */\n    constructor(address[] memory _candidates, address[] memory _voters, uint32 _startDate, uint32 _endDate) {\n\n        // Initialize who will be the election responsible (AKA contract deployer)\n        responsibleAddress = msg.sender;    // 'msg.sender' is the current sender address\n        candidatesList = _candidates;       // Store the candidates' list for a direct call\n\n        // Initialize the candidates' pool\n        candidatesCount = 0;\n        for (uint i = 0; i < _candidates.length; i++) {\n            Candidate storage candidate = candidates[_candidates[i]];\n            candidate.voteCount = 0;\n            candidatesCount++;\n        }\n        // Initialize default voters\n        addVoters(_voters);\n\n        // Initialize election dates\n        startDate = _startDate;\n        endDate = _endDate;\n    }\n\n/***************************************************************\n                           MODIFIERS\n***************************************************************/\n\n/*----- For the Voters -----*/\n\n    // Check if at the current date the election is open for votes\n    modifier electionIsOpen() {\n        require(startDate < block.timestamp, \"The election hasn't started yet.\");\n        require(block.timestamp < endDate, \"The election is finished.\");\n        _;\n    }\n\n    // Check if the election is finished to retrieve the winner\n    modifier isFinished() {\n        require(endDate < block.timestamp, \"You can't ask for the election winner before its end.\");\n        _;\n    }\n\n    // Check if the voter can vote\n    modifier canVote() {\n        Voter memory voter = voters[msg.sender];\n        require(voter.voteWeight != 0, \"You are not allowed to vote.\");\n        require(!voter.hasVoted, \"You already voted.\");\n        require(!voter.hasDelegated, \"You delegated your vote.\");\n        _;\n    }\n\n    // Check if the voter can delegate\n    modifier canDelegate() {\n        Voter memory voter = voters[msg.sender];\n        require(voter.voteWeight != 0, \"You must be allowed to vote before delegating it.\");\n        require(!voter.hasVoted, \"You already voted by yourself.\");\n        require(!voter.hasDelegated, \"You already delegated your vote to someone else.\");\n        _;\n    }\n\n/*----- For the Deployer -----*/\n\n    // Check if the sender is the election responsible, for permissions purpose\n    modifier isResponsible() {\n        require(msg.sender == responsibleAddress, \"You don't have the required permission to perform this action.\");\n        _;\n    }\n\n    // Check if the responsible can edit the election dates\n    modifier canEditDates() {\n        require(block.timestamp < startDate, \"You can only change the election dates before it started.\");\n        _;\n    }\n\n/***************************************************************\n                           FUNCTIONS\n***************************************************************/\n\n/*----- For the Deployer -----*/\n\n    // Add voters to the mapping pool\n    function addVoters(address[] memory _voters) public isResponsible {\n        for (uint i = 0; i < _voters.length; i++) {\n            Voter storage voter = voters[_voters[i]];\n            voter.voteWeight = 1;\n            voter.hasVoted = false;\n            voter.hasDelegated = false;\n        }\n    }\n\n/*----- For the Voters -----*/\n\n    // Handle a voter's vote\n    function vote(address candidateAddress) public electionIsOpen canVote {\n        // Retrieve voter's informations from sender's address\n        Voter storage voter = voters[msg.sender];\n\n        // Handle vote\n        voter.hasVoted = true;\n        voter.votedFor = candidateAddress;\n        candidates[candidateAddress].voteCount += voter.voteWeight;\n    }\n\n    // Handle a voter's vote delegation\n    function delegateVote(address newVoter) public canDelegate {\n        // Other specific checks\n        require(newVoter != msg.sender, \"You can't delegate your vote to yourself.\");\n        require(voters[newVoter].voteWeight != 0, \"You can only delegate your vote to someone allowed to vote too.\");\n        \n        // Retrieve voter's informations from sender's address\n        Voter storage voter = voters[msg.sender];\n\n        // Handle delegation\n        voter.hasDelegated = true;\n        voter.delegatedTo = newVoter;\n        voters[newVoter].voteWeight += voter.voteWeight;\n        \n        // If delegate already voted\n        if (voters[newVoter].hasVoted) {\n            candidates[voters[newVoter].votedFor].voteCount += voter.voteWeight;\n        }\n    }\n\n// [DEMANDER au groupe si ajout d'un paramtre d'entre 'authorizeBouncing/Propagation', en gros lorsque le gars  qui on veut dlguer son vote\n//  lui mme dlguer  un tiers, dtermine si on autorise le rebond de notre dlgation sur ce tiers ou non, avec un attribut d'objet.]\n// Verify if the voter to which you want to delegate your vote hasn't done the same already\n// require(voters[newVoter].hasDelegated = 0, \"The person you want to delegate your vote to has already done the same.\");\n\n/*----- Getters -----*/\n\n    // Get voter informations\n    function getSpecificVoter() public view returns (Voter memory) {\n        return voters[msg.sender];\n    }\n\n    // Get election's winner [MAYBE migrate to the front-side for cost concerns]\n    function getWinner() public view isFinished returns (address winnerAddress) {\n        uint256 maxVotesCount = 0;\n        \n        // Looking for candidate with the most votes\n        for (uint256 i = 0; i < candidatesCount; i++) {\n            if(candidates[candidatesList[i]].voteCount > maxVotesCount) {\n                winnerAddress = candidatesList[i];\n                maxVotesCount = candidates[candidatesList[i]].voteCount;\n            }\n        }\n        return winnerAddress;\n    }\n}",
  "sourcePath": "H:\\Documents\\Projets GIT\\election-contract-front\\contracts\\ElectionContract.sol",
  "compiler": {
    "name": "solc",
    "version": "0.8.11+commit.d7f03943.Emscripten.clang"
  },
  "schemaVersion": "3.4.4",
  "updatedAt": "2022-02-10T01:21:28.057Z",
  "devdoc": {
    "details": "Handle election app",
    "kind": "dev",
    "methods": {
      "constructor": {
        "details": "Initialize the candidates' pool",
        "params": {
          "_candidates": ": addresses of candidates",
          "_endDate": ": election's ending date",
          "_startDate": ": election's starting date",
          "_voters": ": addresses of voters"
        }
      }
    },
    "title": "Contract",
    "version": 1
  },
  "userdoc": {
    "kind": "user",
    "methods": {},
    "version": 1
  }
}