{
  "contractName": "ElectionContract",
  "abi": [
    {
      "inputs": [
        {
          "internalType": "address[]",
          "name": "_candidates",
          "type": "address[]"
        },
        {
          "internalType": "address[]",
          "name": "_voters",
          "type": "address[]"
        },
        {
          "internalType": "uint256",
          "name": "_startDate",
          "type": "uint256"
        },
        {
          "internalType": "uint256",
          "name": "_endDate",
          "type": "uint256"
        }
      ],
      "stateMutability": "nonpayable",
      "type": "constructor"
    },
    {
      "inputs": [
        {
          "internalType": "address",
          "name": "",
          "type": "address"
        }
      ],
      "name": "candidates",
      "outputs": [
        {
          "internalType": "uint256",
          "name": "voteCount",
          "type": "uint256"
        }
      ],
      "stateMutability": "view",
      "type": "function"
    },
    {
      "inputs": [],
      "name": "candidatesCount",
      "outputs": [
        {
          "internalType": "uint256",
          "name": "",
          "type": "uint256"
        }
      ],
      "stateMutability": "view",
      "type": "function"
    },
    {
      "inputs": [
        {
          "internalType": "uint256",
          "name": "",
          "type": "uint256"
        }
      ],
      "name": "candidatesList",
      "outputs": [
        {
          "internalType": "address",
          "name": "",
          "type": "address"
        }
      ],
      "stateMutability": "view",
      "type": "function"
    },
    {
      "inputs": [],
      "name": "endDate",
      "outputs": [
        {
          "internalType": "uint256",
          "name": "",
          "type": "uint256"
        }
      ],
      "stateMutability": "view",
      "type": "function"
    },
    {
      "inputs": [],
      "name": "responsibleAddress",
      "outputs": [
        {
          "internalType": "address",
          "name": "",
          "type": "address"
        }
      ],
      "stateMutability": "view",
      "type": "function"
    },
    {
      "inputs": [],
      "name": "startDate",
      "outputs": [
        {
          "internalType": "uint256",
          "name": "",
          "type": "uint256"
        }
      ],
      "stateMutability": "view",
      "type": "function"
    },
    {
      "inputs": [
        {
          "internalType": "address[]",
          "name": "_voters",
          "type": "address[]"
        }
      ],
      "name": "addVoters",
      "outputs": [],
      "stateMutability": "nonpayable",
      "type": "function"
    },
    {
      "inputs": [
        {
          "internalType": "uint256",
          "name": "startValue",
          "type": "uint256"
        },
        {
          "internalType": "uint256",
          "name": "endValue",
          "type": "uint256"
        }
      ],
      "name": "editDates",
      "outputs": [],
      "stateMutability": "nonpayable",
      "type": "function"
    },
    {
      "inputs": [
        {
          "internalType": "address",
          "name": "candidateAddress",
          "type": "address"
        }
      ],
      "name": "vote",
      "outputs": [],
      "stateMutability": "nonpayable",
      "type": "function"
    },
    {
      "inputs": [
        {
          "internalType": "address",
          "name": "candidateAddress",
          "type": "address"
        }
      ],
      "name": "changeVote",
      "outputs": [],
      "stateMutability": "nonpayable",
      "type": "function"
    },
    {
      "inputs": [
        {
          "internalType": "address",
          "name": "newVoter",
          "type": "address"
        }
      ],
      "name": "delegateVote",
      "outputs": [],
      "stateMutability": "nonpayable",
      "type": "function"
    },
    {
      "inputs": [],
      "name": "getCurrentVoter",
      "outputs": [
        {
          "components": [
            {
              "internalType": "bool",
              "name": "hasVoted",
              "type": "bool"
            },
            {
              "internalType": "address",
              "name": "votedFor",
              "type": "address"
            },
            {
              "internalType": "uint256",
              "name": "voteWeight",
              "type": "uint256"
            },
            {
              "internalType": "bool",
              "name": "hasDelegated",
              "type": "bool"
            },
            {
              "internalType": "address",
              "name": "delegatedTo",
              "type": "address"
            }
          ],
          "internalType": "struct ElectionContract.Voter",
          "name": "",
          "type": "tuple"
        }
      ],
      "stateMutability": "view",
      "type": "function"
    },
    {
      "inputs": [],
      "name": "getWinner",
      "outputs": [
        {
          "internalType": "address",
          "name": "winnerAddress",
          "type": "address"
        }
      ],
      "stateMutability": "view",
      "type": "function"
    }
  ],
  "bytecode": "0x608060405260006005553480156200001657600080fd5b50604051620021aa380380620021aa83398181016040528101906200003c91906200059b565b336000806101000a81548173ffffffffffffffffffffffffffffffffffffffff021916908373ffffffffffffffffffffffffffffffffffffffff160217905550836004908051906020019062000094929190620002c4565b5060005b84518110156200013d57600060036000878481518110620000be57620000bd6200064b565b5b602002602001015173ffffffffffffffffffffffffffffffffffffffff1673ffffffffffffffffffffffffffffffffffffffff168152602001908152602001600020905060008160000181905550600560008154809291906200012190620006a9565b91905055505080806200013490620006a9565b91505062000098565b506200014f836200016760201b60201c565b816001819055508060028190555050505050620007a0565b60008054906101000a900473ffffffffffffffffffffffffffffffffffffffff1673ffffffffffffffffffffffffffffffffffffffff163373ffffffffffffffffffffffffffffffffffffffff1614620001f8576040517f08c379a0000000000000000000000000000000000000000000000000000000008152600401620001ef906200077e565b60405180910390fd5b60005b8151811015620002c0576000600660008484815181106200022157620002206200064b565b5b602002602001015173ffffffffffffffffffffffffffffffffffffffff1673ffffffffffffffffffffffffffffffffffffffff168152602001908152602001600020905060008160000160006101000a81548160ff0219169083151502179055506001816001018190555060008160020160006101000a81548160ff021916908315150217905550508080620002b790620006a9565b915050620001fb565b5050565b82805482825590600052602060002090810192821562000340579160200282015b828111156200033f5782518260006101000a81548173ffffffffffffffffffffffffffffffffffffffff021916908373ffffffffffffffffffffffffffffffffffffffff16021790555091602001919060010190620002e5565b5b5090506200034f919062000353565b5090565b5b808211156200036e57600081600090555060010162000354565b5090565b6000604051905090565b600080fd5b600080fd5b600080fd5b6000601f19601f8301169050919050565b7f4e487b7100000000000000000000000000000000000000000000000000000000600052604160045260246000fd5b620003d6826200038b565b810181811067ffffffffffffffff82111715620003f857620003f76200039c565b5b80604052505050565b60006200040d62000372565b90506200041b8282620003cb565b919050565b600067ffffffffffffffff8211156200043e576200043d6200039c565b5b602082029050602081019050919050565b600080fd5b600073ffffffffffffffffffffffffffffffffffffffff82169050919050565b6000620004818262000454565b9050919050565b620004938162000474565b81146200049f57600080fd5b50565b600081519050620004b38162000488565b92915050565b6000620004d0620004ca8462000420565b62000401565b90508083825260208201905060208402830185811115620004f657620004f56200044f565b5b835b818110156200052357806200050e8882620004a2565b845260208401935050602081019050620004f8565b5050509392505050565b600082601f83011262000545576200054462000386565b5b815162000557848260208601620004b9565b91505092915050565b6000819050919050565b620005758162000560565b81146200058157600080fd5b50565b60008151905062000595816200056a565b92915050565b60008060008060808587031215620005b857620005b76200037c565b5b600085015167ffffffffffffffff811115620005d957620005d862000381565b5b620005e7878288016200052d565b945050602085015167ffffffffffffffff8111156200060b576200060a62000381565b5b62000619878288016200052d565b93505060406200062c8782880162000584565b92505060606200063f8782880162000584565b91505092959194509250565b7f4e487b7100000000000000000000000000000000000000000000000000000000600052603260045260246000fd5b7f4e487b7100000000000000000000000000000000000000000000000000000000600052601160045260246000fd5b6000620006b68262000560565b91507fffffffffffffffffffffffffffffffffffffffffffffffffffffffffffffffff821415620006ec57620006eb6200067a565b5b600182019050919050565b600082825260208201905092915050565b7f596f7520646f6e2774206861766520746865207265717569726564207065726d60008201527f697373696f6e20746f20706572666f726d207468697320616374696f6e2e0000602082015250565b600062000766603e83620006f7565b9150620007738262000708565b604082019050919050565b60006020820190508181036000830152620007998162000757565b9050919050565b6119fa80620007b06000396000f3fe608060405234801561001057600080fd5b50600436106100cf5760003560e01c80638203373a1161008c578063b31e1d4d11610066578063b31e1d4d146101ee578063b81955561461020a578063c24a0f8b14610226578063df2d5ec714610244576100cf565b80638203373a146101845780638ab66a90146101a05780638e7ea5b2146101d0576100cf565b80630b97bc86146100d457806317740c01146100f2578063181bc0b71461010e5780632d35a8a21461012c578063650e4b031461014a5780636dd7d8ea14610168575b600080fd5b6100dc610274565b6040516100e99190610f79565b60405180910390f35b61010c60048036038101906101079190610fd4565b61027a565b005b61011661030c565b6040516101239190611055565b60405180910390f35b610134610330565b6040516101419190610f79565b60405180910390f35b610152610336565b60405161015f9190611111565b60405180910390f35b610182600480360381019061017d9190611158565b610479565b005b61019e600480360381019061019991906112de565b610814565b005b6101ba60048036038101906101b59190611158565b610967565b6040516101c79190610f79565b60405180910390f35b6101d8610985565b6040516101e59190611055565b60405180910390f35b61020860048036038101906102039190611158565b610b3e565b005b610224600480360381019061021f9190611158565b610eb9565b005b61022e610ebc565b60405161023b9190610f79565b60405180910390f35b61025e60048036038101906102599190611327565b610ec2565b60405161026b9190611055565b60405180910390f35b60015481565b60008054906101000a900473ffffffffffffffffffffffffffffffffffffffff1673ffffffffffffffffffffffffffffffffffffffff163373ffffffffffffffffffffffffffffffffffffffff1614610308576040517f08c379a00000000000000000000000000000000000000000000000000000000081526004016102ff906113d7565b60405180910390fd5b5050565b60008054906101000a900473ffffffffffffffffffffffffffffffffffffffff1681565b60055481565b61033e610f01565b600660003373ffffffffffffffffffffffffffffffffffffffff1673ffffffffffffffffffffffffffffffffffffffff1681526020019081526020016000206040518060a00160405290816000820160009054906101000a900460ff161515151581526020016000820160019054906101000a900473ffffffffffffffffffffffffffffffffffffffff1673ffffffffffffffffffffffffffffffffffffffff1673ffffffffffffffffffffffffffffffffffffffff168152602001600182015481526020016002820160009054906101000a900460ff161515151581526020016002820160019054906101000a900473ffffffffffffffffffffffffffffffffffffffff1673ffffffffffffffffffffffffffffffffffffffff1673ffffffffffffffffffffffffffffffffffffffff1681525050905090565b4260015411156104be576040517f08c379a00000000000000000000000000000000000000000000000000000000081526004016104b590611443565b60405180910390fd5b426002541015610503576040517f08c379a00000000000000000000000000000000000000000000000000000000081526004016104fa906114af565b60405180910390fd5b6000600660003373ffffffffffffffffffffffffffffffffffffffff1673ffffffffffffffffffffffffffffffffffffffff1681526020019081526020016000206040518060a00160405290816000820160009054906101000a900460ff161515151581526020016000820160019054906101000a900473ffffffffffffffffffffffffffffffffffffffff1673ffffffffffffffffffffffffffffffffffffffff1673ffffffffffffffffffffffffffffffffffffffff168152602001600182015481526020016002820160009054906101000a900460ff161515151581526020016002820160019054906101000a900473ffffffffffffffffffffffffffffffffffffffff1673ffffffffffffffffffffffffffffffffffffffff1673ffffffffffffffffffffffffffffffffffffffff16815250509050600081604001511415610685576040517f08c379a000000000000000000000000000000000000000000000000000000000815260040161067c9061151b565b60405180910390fd5b8060000151156106ca576040517f08c379a00000000000000000000000000000000000000000000000000000000081526004016106c190611587565b60405180910390fd5b80606001511561070f576040517f08c379a0000000000000000000000000000000000000000000000000000000008152600401610706906115f3565b60405180910390fd5b6000600660003373ffffffffffffffffffffffffffffffffffffffff1673ffffffffffffffffffffffffffffffffffffffff168152602001908152602001600020905060018160000160006101000a81548160ff021916908315150217905550828160000160016101000a81548173ffffffffffffffffffffffffffffffffffffffff021916908373ffffffffffffffffffffffffffffffffffffffff1602179055508060010154600360008573ffffffffffffffffffffffffffffffffffffffff1673ffffffffffffffffffffffffffffffffffffffff16815260200190815260200160002060000160008282546108089190611642565b92505081905550505050565b60008054906101000a900473ffffffffffffffffffffffffffffffffffffffff1673ffffffffffffffffffffffffffffffffffffffff163373ffffffffffffffffffffffffffffffffffffffff16146108a2576040517f08c379a0000000000000000000000000000000000000000000000000000000008152600401610899906113d7565b60405180910390fd5b60005b8151811015610963576000600660008484815181106108c7576108c6611698565b5b602002602001015173ffffffffffffffffffffffffffffffffffffffff1673ffffffffffffffffffffffffffffffffffffffff168152602001908152602001600020905060008160000160006101000a81548160ff0219169083151502179055506001816001018190555060008160020160006101000a81548160ff02191690831515021790555050808061095b906116c7565b9150506108a5565b5050565b60036020528060005260406000206000915090508060000154905081565b600042600254106109cb576040517f08c379a00000000000000000000000000000000000000000000000000000000081526004016109c290611782565b60405180910390fd5b6000805b600554811015610b39578160036000600484815481106109f2576109f1611698565b5b9060005260206000200160009054906101000a900473ffffffffffffffffffffffffffffffffffffffff1673ffffffffffffffffffffffffffffffffffffffff1673ffffffffffffffffffffffffffffffffffffffff168152602001908152602001600020600001541115610b265760048181548110610a7557610a74611698565b5b9060005260206000200160009054906101000a900473ffffffffffffffffffffffffffffffffffffffff1692506003600060048381548110610aba57610ab9611698565b5b9060005260206000200160009054906101000a900473ffffffffffffffffffffffffffffffffffffffff1673ffffffffffffffffffffffffffffffffffffffff1673ffffffffffffffffffffffffffffffffffffffff1681526020019081526020016000206000015491505b8080610b31906116c7565b9150506109cf565b505090565b6000600660003373ffffffffffffffffffffffffffffffffffffffff1673ffffffffffffffffffffffffffffffffffffffff1681526020019081526020016000206040518060a00160405290816000820160009054906101000a900460ff161515151581526020016000820160019054906101000a900473ffffffffffffffffffffffffffffffffffffffff1673ffffffffffffffffffffffffffffffffffffffff1673ffffffffffffffffffffffffffffffffffffffff168152602001600182015481526020016002820160009054906101000a900460ff161515151581526020016002820160019054906101000a900473ffffffffffffffffffffffffffffffffffffffff1673ffffffffffffffffffffffffffffffffffffffff1673ffffffffffffffffffffffffffffffffffffffff16815250509050600081604001511415610cc0576040517f08c379a0000000000000000000000000000000000000000000000000000000008152600401610cb790611814565b60405180910390fd5b806000015115610d05576040517f08c379a0000000000000000000000000000000000000000000000000000000008152600401610cfc90611880565b60405180910390fd5b806060015115610d4a576040517f08c379a0000000000000000000000000000000000000000000000000000000008152600401610d4190611912565b60405180910390fd5b3373ffffffffffffffffffffffffffffffffffffffff168273ffffffffffffffffffffffffffffffffffffffff161415610db9576040517f08c379a0000000000000000000000000000000000000000000000000000000008152600401610db0906119a4565b60405180910390fd5b6000600660003373ffffffffffffffffffffffffffffffffffffffff1673ffffffffffffffffffffffffffffffffffffffff168152602001908152602001600020905060018160020160006101000a81548160ff021916908315150217905550828160020160016101000a81548173ffffffffffffffffffffffffffffffffffffffff021916908373ffffffffffffffffffffffffffffffffffffffff160217905550600660008473ffffffffffffffffffffffffffffffffffffffff1673ffffffffffffffffffffffffffffffffffffffff1681526020019081526020016000206001016000815480929190610eaf906116c7565b9190505550505050565b50565b60025481565b60048181548110610ed257600080fd5b906000526020600020016000915054906101000a900473ffffffffffffffffffffffffffffffffffffffff1681565b6040518060a00160405280600015158152602001600073ffffffffffffffffffffffffffffffffffffffff16815260200160008152602001600015158152602001600073ffffffffffffffffffffffffffffffffffffffff1681525090565b6000819050919050565b610f7381610f60565b82525050565b6000602082019050610f8e6000830184610f6a565b92915050565b6000604051905090565b600080fd5b600080fd5b610fb181610f60565b8114610fbc57600080fd5b50565b600081359050610fce81610fa8565b92915050565b60008060408385031215610feb57610fea610f9e565b5b6000610ff985828601610fbf565b925050602061100a85828601610fbf565b9150509250929050565b600073ffffffffffffffffffffffffffffffffffffffff82169050919050565b600061103f82611014565b9050919050565b61104f81611034565b82525050565b600060208201905061106a6000830184611046565b92915050565b60008115159050919050565b61108581611070565b82525050565b61109481611034565b82525050565b6110a381610f60565b82525050565b60a0820160008201516110bf600085018261107c565b5060208201516110d2602085018261108b565b5060408201516110e5604085018261109a565b5060608201516110f8606085018261107c565b50608082015161110b608085018261108b565b50505050565b600060a08201905061112660008301846110a9565b92915050565b61113581611034565b811461114057600080fd5b50565b6000813590506111528161112c565b92915050565b60006020828403121561116e5761116d610f9e565b5b600061117c84828501611143565b91505092915050565b600080fd5b6000601f19601f8301169050919050565b7f4e487b7100000000000000000000000000000000000000000000000000000000600052604160045260246000fd5b6111d38261118a565b810181811067ffffffffffffffff821117156111f2576111f161119b565b5b80604052505050565b6000611205610f94565b905061121182826111ca565b919050565b600067ffffffffffffffff8211156112315761123061119b565b5b602082029050602081019050919050565b600080fd5b600061125a61125584611216565b6111fb565b9050808382526020820190506020840283018581111561127d5761127c611242565b5b835b818110156112a657806112928882611143565b84526020840193505060208101905061127f565b5050509392505050565b600082601f8301126112c5576112c4611185565b5b81356112d5848260208601611247565b91505092915050565b6000602082840312156112f4576112f3610f9e565b5b600082013567ffffffffffffffff81111561131257611311610fa3565b5b61131e848285016112b0565b91505092915050565b60006020828403121561133d5761133c610f9e565b5b600061134b84828501610fbf565b91505092915050565b600082825260208201905092915050565b7f596f7520646f6e2774206861766520746865207265717569726564207065726d60008201527f697373696f6e20746f20706572666f726d207468697320616374696f6e2e0000602082015250565b60006113c1603e83611354565b91506113cc82611365565b604082019050919050565b600060208201905081810360008301526113f0816113b4565b9050919050565b7f54686520656c656374696f6e206973206e6f7420796574206f70656e2e000000600082015250565b600061142d601d83611354565b9150611438826113f7565b602082019050919050565b6000602082019050818103600083015261145c81611420565b9050919050565b7f54686520656c656374696f6e20697320636c6f7365642e000000000000000000600082015250565b6000611499601783611354565b91506114a482611463565b602082019050919050565b600060208201905081810360008301526114c88161148c565b9050919050565b7f43616e20617265206e6f7420616c6c6f77656420746f20766f74652e00000000600082015250565b6000611505601c83611354565b9150611510826114cf565b602082019050919050565b60006020820190508181036000830152611534816114f8565b9050919050565b7f596f7520616c726561647920766f7465642e0000000000000000000000000000600082015250565b6000611571601283611354565b915061157c8261153b565b602082019050919050565b600060208201905081810360008301526115a081611564565b9050919050565b7f596f752064656c65676174656420796f757220766f74652e0000000000000000600082015250565b60006115dd601883611354565b91506115e8826115a7565b602082019050919050565b6000602082019050818103600083015261160c816115d0565b9050919050565b7f4e487b7100000000000000000000000000000000000000000000000000000000600052601160045260246000fd5b600061164d82610f60565b915061165883610f60565b9250827fffffffffffffffffffffffffffffffffffffffffffffffffffffffffffffffff0382111561168d5761168c611613565b5b828201905092915050565b7f4e487b7100000000000000000000000000000000000000000000000000000000600052603260045260246000fd5b60006116d282610f60565b91507fffffffffffffffffffffffffffffffffffffffffffffffffffffffffffffffff82141561170557611704611613565b5b600182019050919050565b7f596f752063616e27742061736b20666f722074686520656c656374696f6e207760008201527f696e6e6572206265666f7265206974277320656e642e00000000000000000000602082015250565b600061176c603683611354565b915061177782611710565b604082019050919050565b6000602082019050818103600083015261179b8161175f565b9050919050565b7f596f75206d75737420626520616c6c6f77656420746f20766f7465206265666f60008201527f72652064656c65676174696e672069742e000000000000000000000000000000602082015250565b60006117fe603183611354565b9150611809826117a2565b604082019050919050565b6000602082019050818103600083015261182d816117f1565b9050919050565b7f596f7520616c726561647920766f74656420627920796f757273656c662e0000600082015250565b600061186a601e83611354565b915061187582611834565b602082019050919050565b600060208201905081810360008301526118998161185d565b9050919050565b7f596f7520616c72656164792064656c65676174656420796f757220766f74652060008201527f746f20736f6d656f6e6520656c73652e00000000000000000000000000000000602082015250565b60006118fc603083611354565b9150611907826118a0565b604082019050919050565b6000602082019050818103600083015261192b816118ef565b9050919050565b7f596f752063616e27742064656c656761746520796f757220766f746520746f2060008201527f796f757273656c662e0000000000000000000000000000000000000000000000602082015250565b600061198e602983611354565b915061199982611932565b604082019050919050565b600060208201905081810360008301526119bd81611981565b905091905056fea2646970667358221220ff514f090410244d055ac8e87a5295705a6475afc70065e8b1048a5c3fcd3f6d64736f6c634300080b0033",
  "immutableReferences": {},
  "source": "// SPDX-License-Identifier: MIT\npragma solidity >=0.4.22 <0.9.0;\n\n/**\n * @title Contract\n * @dev Handle election app\n */\ncontract ElectionContract {\n    /***************************************************************\n                    VARIABLE DECLARATIONS\n***************************************************************/\n\n    /* Miscellaneous */\n    address public responsibleAddress; // Address of the contract deployer, used to grant election editing permissions\n    // Dates are stored in Unix epoch timestamp format (so only 32 bytes necessary)\n    uint256 public startDate;\n    uint256 public endDate;\n\n    /* Candidates related */\n    struct Candidate {\n        uint256 voteCount;\n    }\n    mapping(address => Candidate) public candidates; // Whole object to make a graph on front-side\n    address[] public candidatesList; // Just the candidates' list when the voter votes\n    uint256 public candidatesCount = 0; // To emulate the mapping length\n\n    /* Voters related */\n    struct Voter {\n        bool hasVoted; // If the voter has voted\n        address votedFor; // Address of the candidate voted for\n        uint256 voteWeight; // Vote weight, can increase when people delegate their vote to others\n        bool hasDelegated; // If the voter delegated his vote to another member\n        address delegatedTo; // Address of the member the voter delegated his vote to\n    }\n    mapping(address => Voter) private voters;\n\n    /***************************************************************\n                    VARIABLE INITIALIZATIONS\n***************************************************************/\n\n    /**\n     * @dev Initialize the candidates' pool\n     * @param _candidates : addresses of candidates\n     * @param _voters : addresses of voters\n     * @param _startDate : election's starting date\n     * @param _endDate : election's ending date\n     */\n    constructor(\n        address[] memory _candidates,\n        address[] memory _voters,\n        uint256 _startDate,\n        uint256 _endDate\n    ) {\n        // Initialize who will be the election responsible (AKA contract deployer)\n        responsibleAddress = msg.sender; // 'msg.sender' is the current sender address\n        candidatesList = _candidates; // Store the candidates' list for a direct call\n\n        // Initialize the candidates' pool\n        for (uint256 i = 0; i < _candidates.length; i++) {\n            Candidate storage candidate = candidates[_candidates[i]];\n            candidate.voteCount = 0;\n            candidatesCount++;\n        }\n        // Initialize default voters\n        /*for (uint i = 0; i < _voters.length; i++) {\n            Voter storage voter = voters[_voters[i]];\n            voter.hasVoted = false;\n            voter.voteWeight = 1;\n            voter.hasDelegated = false;\n        }*/\n        addVoters(_voters);\n\n        // Initialize election dates\n        startDate = _startDate;\n        endDate = _endDate;\n    }\n\n    /***************************************************************\n                           MODIFIERS\n***************************************************************/\n\n    /*----- For the Voters -----*/\n\n    // Check if at the current date the election is open for votes\n    modifier electionIsOpen() {\n        require(startDate <= block.timestamp, \"The election is not yet open.\");\n        require(endDate >= block.timestamp, \"The election is closed.\");\n        _;\n    }\n\n    // Check if the voter can vote\n    modifier canVote() {\n        Voter memory voter = voters[msg.sender];\n        require(voter.voteWeight != 0, \"Can are not allowed to vote.\");\n        require(!voter.hasVoted, \"You already voted.\");\n        require(!voter.hasDelegated, \"You delegated your vote.\");\n        _;\n    }\n\n    // Check if the voter can delegate\n    modifier canDelegate() {\n        Voter memory voter = voters[msg.sender];\n        require(\n            voter.voteWeight != 0,\n            \"You must be allowed to vote before delegating it.\"\n        );\n        require(!voter.hasVoted, \"You already voted by yourself.\");\n        require(\n            !voter.hasDelegated,\n            \"You already delegated your vote to someone else.\"\n        );\n        _;\n    }\n\n    /*----- For the Deployer -----*/\n\n    // Check if the sender is the election responsible, for permissions purpose\n    modifier isResponsible() {\n        require(\n            msg.sender == responsibleAddress,\n            \"You don't have the required permission to perform this action.\"\n        );\n        _;\n    }\n\n    // Check if the responsible can edit the election starting date\n    modifier canEditStartDate() {\n        require(\n            block.timestamp < startDate,\n            \"You can't change the starting date of the election after it started.\"\n        );\n        _;\n    }\n\n    // Check if the election is finished to retrieve the winner\n    modifier isFinished() {\n        require(\n            endDate < block.timestamp,\n            \"You can't ask for the election winner before it's end.\"\n        );\n        _;\n    }\n\n    /***************************************************************\n                           FUNCTIONS\n***************************************************************/\n\n    /*----- For the Deployer -----*/\n\n    // Add voters to the mapping pool\n    function addVoters(address[] memory _voters) public isResponsible {\n        for (uint256 i = 0; i < _voters.length; i++) {\n            Voter storage voter = voters[_voters[i]];\n            voter.hasVoted = false;\n            voter.voteWeight = 1;\n            voter.hasDelegated = false;\n        }\n    }\n\n    // [En BONUS]\n    function editDates(uint256 startValue, uint256 endValue)\n        public\n        isResponsible\n    {}\n\n    /*----- For the Voters -----*/\n\n    function vote(address candidateAddress) public electionIsOpen canVote {\n        // Retrieve voter's informations from sender's address\n        Voter storage voter = voters[msg.sender];\n\n        // Handle vote\n        voter.hasVoted = true;\n        voter.votedFor = candidateAddress;\n        candidates[candidateAddress].voteCount += voter.voteWeight;\n    }\n\n    // [En BONUS]\n    function changeVote(address candidateAddress) public {}\n\n    // [DEMANDER au groupe si ajout d'un paramtre d'entre 'authorizeBouncing/Propagation', en gros lorsque le gars  qui on veut dlguer son vote\n    //  lui mme dlguer  un tiers, dtermine si on autorise le rebond de notre dlgation sur ce tiers ou non. Voire un attribut d'objet.]\n    // Verify if the voter to which you want to delegate your vote hasn't done the same already\n    // require(voters[newVoter].hasDelegated = 0, \"The person you want to delegate your vote to has already done the same.\");\n\n    function delegateVote(address newVoter) public canDelegate {\n        // Other specific checks\n        // [OPTION : Ajouter check si la personne  qui on dlgue peut voter]\n        require(\n            newVoter != msg.sender,\n            \"You can't delegate your vote to yourself.\"\n        );\n\n        // Retrieve voter's informations from sender's address\n        Voter storage voter = voters[msg.sender];\n\n        // Handle delegation\n        voter.hasDelegated = true;\n        voter.delegatedTo = newVoter;\n        voters[newVoter].voteWeight++;\n    }\n\n    /*----- Getters -----*/\n\n    // Get candidates' pool\n    // ? see https://ethereum.stackexchange.com/a/65590\n    // but not working !!!\n    // function getAllCandidates() public view returns (address[] memory) {\n    //     address[] memory ret = new address[](candidatesCount);\n\n    //     for (uint256 i = 0; i < candidatesCount; i++) {\n    //         ret[i] = candidatesList[i];\n    //     }\n\n    //     return ret;\n    // }\n\n    // Get current voter informations\n    function getCurrentVoter() public view returns (Voter memory) {\n        return voters[msg.sender];\n    }\n\n    // Get election's winner [MAYBE migrate on the front-side]\n    function getWinner()\n        public\n        view\n        isFinished\n        returns (address winnerAddress)\n    {\n        uint256 maxVotesCount = 0;\n\n        // Looking for candidate with the most votes\n        for (uint256 i = 0; i < candidatesCount; i++) {\n            if (candidates[candidatesList[i]].voteCount > maxVotesCount) {\n                winnerAddress = candidatesList[i];\n                maxVotesCount = candidates[candidatesList[i]].voteCount;\n            }\n        }\n        return winnerAddress;\n    }\n}\n",
  "sourcePath": "C:\\Users\\Dell\\Desktop\\vue projects\\election-contract-front\\contracts\\ElectionContract.sol",
  "compiler": {
    "name": "solc",
    "version": "0.8.11+commit.d7f03943.Emscripten.clang"
  },
  "schemaVersion": "3.4.4",
  "updatedAt": "2022-02-02T23:10:51.301Z",
  "devdoc": {
    "details": "Handle election app",
    "kind": "dev",
    "methods": {
      "constructor": {
        "details": "Initialize the candidates' pool",
        "params": {
          "_candidates": ": addresses of candidates",
          "_endDate": ": election's ending date",
          "_startDate": ": election's starting date",
          "_voters": ": addresses of voters"
        }
      }
    },
    "title": "Contract",
    "version": 1
  },
  "userdoc": {
    "kind": "user",
    "methods": {},
    "version": 1
  }
}